:100000001BC035C034C0F3C132C031C027C32FC0BC
:100010002EC02DC02CC073CA2AC037CA28C027C022
:1000200026C025C024C03031323334353637383914
:10003000414243444546000011241FBECFE5D4E0B1
:10004000DEBFCDBF10E0A0E6B0E0EAEEFDE102C009
:1000500005900D92A43FB107D9F721E0A4EFB0E0DD
:1000600001C01D92A83CB207E1F7B0D4BCCEC8CF06
:10007000FC018FB7F89471836083538342831782A6
:100080001682158214828FBF0895FC019FB7F894E1
:100090002481358121153105D9F046815781A08110
:1000A000B181A40FB51F8C914F5F5F4F578346837B
:1000B000628173814617570730F421503109358327
:1000C00024839FBF0895461B570B57834683F5CF64
:1000D00080E09FBF0895FC01AFB7F894248135817B
:1000E00062177307A8F486819781860F971F9783FD
:1000F0008683428153818417950720F0841B950BDA
:1001000097838683261B370B35832483AFBF0895DF
:1001100015821482AFBF0895FC01CB014FB7F8944C
:1001200026813781820F931F6281738126DA0190C5
:10013000F081E02DE80FF91F80814FBF0895CF9324
:10014000DF93FC01D62FCFB7F894448155816281AB
:10015000738146175707A0F486819781840F951FF6
:100160000CDAA081B181A80FB91FDC93848195813D
:10017000019695838483CFBF8FEFDF91CF91089550
:10018000CFBF80E0DF91CF910895FC014FB7F89485
:1001900082819381248135814FBF821B930B089507
:1001A0002FB7F894FC01158214822FBF089566239F
:1001B00069F1C19AC798BB9ABC9ABD9ABE9AC69873
:1001C000C598C498C39887FD23C086FDC59A85FD50
:1001D000C49A84FDC39AC29A92E09A95F1F7C298A4
:1001E000C698C598C498C39883FDC69A82FDC59ADF
:1001F00081FDC49A80FDC39AC29A82E08A95F1F784
:10020000C298C39AC49AC59AC69A0895C198D2CF83
:10021000C69ADBCFC198C79ABB98BC98BD98BE98C8
:10022000C29A82E08A95F1F7B39919C080E0B49937
:100230008062B5998064B6998068C29892E09A9578
:10024000F1F7C29A92E09A95F1F7B3998160B49967
:100250008260B5998460B6998860C298089580E1FB
:10026000E6CFD8DF87FDFDCF8AE08A95F1F7D2CFC0
:10027000CF93C82FF6DF60E08C2FCF9198CFCF932C
:10028000C82FEFDF61E08C2FCF9191CFCF93C82F94
:10029000662331F0E6DF60E080EC8C0FCF9187CFF2
:1002A000E0DF60E080E88C0FCF9181CFDADF90E073
:1002B0000895D7DF60E081E07ACFD3DF60E082E0AD
:1002C00076CFCF93C82FCDDFCA3021F061E08C2FDD
:1002D000CF916DCF803430F0C0E8C3DF60E08C2F69
:1002E000CF9165CFC0ECF9CFCF93DF93EC0121968E
:1002F000FC018081882321F0E4DF89918111FCCF0A
:10030000DF91CF910895CF93DF93EC012196FC010B
:100310008491882331F0D5DFFE01849121968111EB
:10032000FACFDF91CF910895CF93C82FB99ABF9A92
:10033000BA9ABB9ABC9ABD9ABE9AE0EAFCE8319799
:10034000F1F7C49AC39AC29A92E09A95F1F7C298CB
:10035000E0EBF6E33197F1F7C29A92E09A95F1F764
:10036000C2989AEA9A95F1F7C29A92E09A95F1F7B3
:10037000C2989AEA9A95F1F7C398C29A92E09A9530
:10038000F1F7C2989AEA9A95F1F76BDF60E088E29C
:100390000EDF67DF60E088E00ADF63DF60E081E0B6
:1003A00006DF5FDF60E086E002DF5BDF60E08C2F6E
:1003B000CF91FDCE369A3699FECF64B175B180E00B
:1003C00090E00895369A3699FECF64B175B180E019
:1003D00090E00895CF93DF93962FEA016FEF680FB7
:1003E0008FEF890F53DFCE01DF91CF917DCF1F9229
:1003F0000F920FB60F9211242F933F934F935F9359
:100400006F937F938F939F93EF93FF9382B78A5F4E
:1004100082BF80916A0090916B00892B09F05FC0C8
:1004200080910C0190910D012091120130911301E6
:10043000AC01440F551FFA01EA56FF4F60817181EC
:100440006217730709F4E0C02F5F3F4F3093130129
:10045000209312012091680030916900232B09F448
:1004600069C020910E0130910F01880F991FFC0186
:10047000E254FF4F408151814217530709F4ADC048
:100480002F5F3F4F30930F0120930E0120916C009E
:1004900030916D00232B09F075C02091100130912F
:1004A0001101FC01E259FF4F40815181421753076E
:1004B00009F4C1C02F5F3F4F309311012093100109
:1004C000FF91EF919F918F917F916F915F914F91EC
:1004D0003F912F910F900FBE0F901F901895809114
:1004E0000C0190910D019C01220F331FF901EE5276
:1004F000FF4F4081518160911201709113014617A5
:10050000570709F463C0F901EA56FF4F2081318192
:10051000232B09F055C01092130110921201109272
:100520006B0010926A002091680030916900232BC3
:1005300009F097CF20910E0130910F01880F991F7C
:10054000FC01EE57FF4F408151814217530709F0DC
:1005500097CFFC01E254FF4F20813181232B39F0EA
:10056000939A80910C0190910D01880F991F109220
:100570000F0110920E0121E030E0309369002093CA
:10058000680084CF2091100130911101FC01E655E3
:10059000FF4F408151814217530709F08BCFFC0177
:1005A000E259FF4F80819181892B09F09498109234
:1005B00011011092100110926D0010926C0080CF0A
:1005C000929880910C0190910D01A5CF4F5F5F4FE4
:1005D0005093130140931201A6CFFC01EE57FF4F39
:1005E00020813181232B39F0939880910C019091D7
:1005F0000D01880F991F10920F0110920E01109299
:1006000069001092680042CFFA01EE52FF4F20813C
:100610003181232B29F0929A80910C0190910D0148
:10062000109213011092120121E030E030936B0020
:1006300020936A0078CFFC01E655FF4F80819181BD
:10064000892B09F0949A109211011092100181E007
:1006500090E090936D0080936C0032CF1F920F92C8
:100660000FB60F9211248F939F93AF93BF938091F6
:10067000FA009091FB0001969093FB008093FA00A2
:10068000CC9731F18091F8009091F900CC9779F1F5
:1006900010920601109207011092080110920901B0
:1006A000369A3699FECF84B195B1A0E0B0E0809340
:1006B000060190930701A0930801B0930901BF912F
:1006C000AF919F918F910F900FBE0F901F90189533
:1006D0008091F8009091F90001969093F900809331
:1006E000F8001092FB001092FA00CC9789F68091E6
:1006F000F6009091F70001969093F7008093F60032
:100700001092F9001092F800C3CF109213011092CA
:10071000120110920F0110920E011092110110920D
:10072000100110926B0010926A00109269001092F2
:10073000680010926D0010926C0008951F93CF9383
:10074000DF938091FB008F938091FA008F93C6EE28
:10075000D0E0DF93CF931F9212E01F938091A4010A
:100760008F938091A3018F9371D88091F9008F931B
:100770008091F8008F93DF93CF931F921F93809106
:10078000AE018F938091AD018F9360D88091F70077
:100790008F938091F6008F93DF93CF931F921F93D7
:1007A00080919D018F9380919C018F934FD88DB73D
:1007B0009EB748960FB6F8949EBF0FBE8DBFDF91CF
:1007C000CF911F910895FF920F931F93CF93DF93C3
:1007D000809109018F93809108018F938091070187
:1007E0008F93809106018F9389EE90E09F938F9372
:1007F0001F9284E08F938091A8018F938091A7012D
:100800008F9324D88091FB008F938091FA008F936F
:10081000C6EED0E0DF93CF931F9213E01F93809139
:10082000A6018F938091A5018F9310D88091F90034
:100830008F938091F8008F93DF93CF931F921F9334
:100840008091AC018F938091AB018F93FFD7809102
:10085000F7008F938091F6008F93DF93CF931F92D1
:100860001F938091A1018F938091A0018F93EED768
:100870008DB79EB782960FB6F8949EBF0FBE8DBF00
:1008800018DD0091A0011091A10160E080E0FEDC84
:10089000C8012ADD60E082E0F9DC8DEE90E024DD25
:1008A0000091AB011091AC0160E083E0EFDCC80186
:1008B0001BDD60E085E0EADC8DEE90E015DD009167
:1008C000A5011091A60160E086E0E0DCC8010CDD26
:1008D00080910D018F9380910C018F93DF93CF93C3
:1008E0001F92F2E0FF2EFF928091AA018F938091D8
:1008F000A9018F93ABD70091A9011091AA0160E0E3
:1009000089E0C4DCC801F0DC60E08AE0BFDC8FEE87
:1009100090E0EADC80919B018F9380919A018F9304
:10092000DF93CF931F92FF928091A2011F928F932A
:100930008DD7C091A201D0E060E08BE0A7DCCE01B2
:10094000D3DCC091AF01D0E060E08DE09FDCCE0150
:10095000CBDCC0919C01D0919D0161E085E096DCEB
:10096000CE01C2DC61E087E091DC8DEE90E0BCDC82
:10097000C091AD01D091AE0161E088E087DCCE018D
:10098000B3DC61E08AE082DC8DEE90E0ADDCC0910A
:10099000A301D091A40161E08BE078DCCE01A4DC5E
:1009A000C091A701D091A80161E080E06FDC8DB714
:1009B0009EB740960FB6F8949EBF0FBE8DBFCE0176
:1009C000DF91CF911F910F91FF908ECC89E090E045
:1009D00090939B0180939A0181EF90E08093AF0107
:1009E00086E090E00CD69093A8018093A70182E066
:1009F00090E005D69093AA018093A90182E090E04F
:100A0000FED58093A20180E390E09093A4018093AF
:100A1000A3019093AE018093AD0190939D018093CB
:100A20009C0183E090E0EBD59093A6018093A50113
:100A300083E090E0E4D59093AC018093AB0183E038
:100A400090E0DDD59093A1018093A00186E090E035
:100A5000D6D590939F0180939E011092060110922B
:100A600007011092080110920901109202011092E0
:100A7000030110920401109205018FEF81BB12BA9D
:100A8000A098A1988CE050DC5BD48EEE99E09BD1CD
:100A900085E886B985E087B980E283BD85B5886041
:100AA00085BD89B7806889BF85B5826085BD8AEFBD
:100AB0009EE19BBD8ABD8EB588608EBD89B7806181
:100AC00089BF8EB585608EBD789480E29EE40197E3
:100AD000F1F7CC24C394D12CC0E4DCE9B0C0809100
:100AE000000190910101892B09F0ABC0D092010166
:100AF000C092000180910C0190910D0120919A010A
:100B000030919B01821793070CF43EC1999B9FC0C3
:100B10008091FE009091FF00892B09F098C0D0923F
:100B2000FF00C092FE0080910C0190910D011816FB
:100B30001906F4F4019790930D0180930C01109223
:100B400013011092120110920F0110920E011092D7
:100B500011011092100110926B0010926A00109215
:100B600069001092680010926D0010926C00E6DD32
:100B700040910601509107016091080170910901AF
:100B80008091020190910301A0910401B0910501AF
:100B9000481759076A077B07F9F08CE419D1E090F0
:100BA0000601F0900701009108011091090120E36E
:100BB00040E064E08AE018D280910601909107013C
:100BC000A0910801B0910901809302019093030163
:100BD000A0930401B093050120910C0130910D0107
:100BE00080910A0190910B0128173907B9F080E52F
:100BF000EFD0E0900C01F0900D010027F7FC00957C
:100C0000102F20E340E064E08AE0EED180910C01F7
:100C100090910D0190930B0180930A011AD48823BF
:100C2000D9F08091F4009091F50001969093F50031
:100C30008093F400499709F1CE010197F1F7989953
:100C40004ECF1092010110920001999961CF10923C
:100C5000FF001092FE008CCFE4D39093FD008093B0
:100C6000FC008F3F2FEF9207E1F28A30910558F494
:100C700090930D0180930C01D4CFA5DD1092F50067
:100C80001092F400D9CF8332910571F0843291052E
:100C9000C1F0869731F6DDD38111FDCFC2D3909399
:100CA000670080936600BDCFD4D38111FDCFB9D347
:100CB00090939B0180939A0110920D0110920C0168
:100CC000B0CFC7D38111FDCFACD390936700809391
:100CD0006600BFD38111FDCF0091660010916700BF
:100CE000A0D3F801EE0FFF1FEE52FF4F91838083D8
:100CF000B0D38111FDCF009166001091670091D3B0
:100D0000F801EE0FFF1FE254FF4F91838083A1D3C0
:100D10008111FDCF009166001091670082D3F80128
:100D2000EE0FFF1FE655FF4F9183808392D3811111
:100D3000FDCF009166001091670073D3F801EE0FAC
:100D4000FF1FEA56FF4F9183808383D38111FDCF2C
:100D5000009166001091670064D3F801EE0FFF1F49
:100D6000EE57FF4F9183808374D38111FDCF0091A3
:100D700066001091670055D3F801EE0FFF1FE2598E
:100D8000FF4F918380834DCF019690930D01809307
:100D90000C01109213011092120110920F01109287
:100DA0000E01109211011092100110926B0010921E
:100DB0006A00109269001092680010926D00109203
:100DC0006C00BCDCA3CE90931701809316010895AC
:100DD000CF93C82F8A3039F0E0911601F0911701B6
:100DE0008C2FCF910994E0911601F09117018DE0BD
:100DF0000995E0911601F09117018C2FCF9109947C
:100E00001F93CF93DF930097C9F0FC01108111234A
:100E1000A9F0EC01219609C0E0911601F0911701AB
:100E2000812F09951991112349F01A30A9F7E09102
:100E30001601F09117018DE00995EECFDF91CF916A
:100E40001F910895CF92DF92EF92FF920F931F931D
:100E5000CF93DF931F92CDB7DEB77A010097A9F148
:100E6000FC01680F791F08C06F018FEFC81AD80AFC
:100E70008081882329F0F6016F01E617F707A1F7B3
:100E8000E114F10411F100E010E010C0BFEFCB1A43
:100E9000DB0A9A3021F1E0911601F0911701892FB8
:100EA00009950F5F1F4F0E151F0579F0D6019C9114
:100EB0009111ECCFE0911601F091170180E20995B4
:100EC0000F5F1F4F0E151F0589F70F90DF91CF9110
:100ED0001F910F91FF90EF90DF90CF900895E091D8
:100EE0001601F09117018DE0998309959981D3CF6F
:100EF0001F93CF93DF930097D9F0EC012196FC016B
:100F0000149111110CC014C0E0911601F091170159
:100F1000812F0995FE0114912196112349F01A3071
:100F200099F7E0911601F09117018DE00995ECCF4A
:100F3000DF91CF911F910895E0911601F091170173
:100F40008DE00995E0911601F09117018AE009946E
:100F5000CF938F70E82FF0E0EA5DFF4FC491CA3065
:100F600039F0E0911601F09117018C2FCF9109947F
:100F7000E0911601F09117018DE00995E0911601BD
:100F8000F09117018C2FCF910994CF93C82F8295A0
:100F90008F70DEDF8C2FCF91DBCF1F93CF93DF934A
:100FA0001F92CDB7DEB7182F892F82958F70998346
:100FB000CFDF9981892FCCDF812F82958F70C8DF99
:100FC000812F0F90DF91CF911F91C2CFCF92DF92EF
:100FD000EF92FF926B017C01C701DFDFC601FF903A
:100FE000EF90DF90CF90D9CF3F924F925F926F9268
:100FF0007F928F929F92AF92BF92CF92DF92EF92A9
:10100000FF920F931F93CF93DF93CDB7DEB7A997CE
:101010000FB6F894DEBF0FBECDBF362E722E44231E
:1010200011F017FD9FC047015801DD24D3944111F1
:1010300001C0D12CCC24CA94C30CCD1818A2282FDF
:1010400030E040E050E029A33AA34BA35CA3C501E4
:10105000B401A7D2FB01EF70FF27EA5DFF4F649157
:101060006F8FC501B40129A13AA14BA15CA199D20E
:1010700049015A012E013EE1430E511CEDA2FEA290
:101080000FA318A70C2D1C2D6D2CC9A0DAA0EBA066
:10109000FCA017C0C501B401A701960182D2FB01D3
:1010A000EF70FF27EA5DFF4F6491F2016083C50195
:1010B000B401A701960175D249015A01F1E04F1A16
:1010C0005108115040F081149104A104B10411F7AA
:1010D000F2017082F3CFC02EEDA0FEA00FA118A5E3
:1010E000FE017F96EC19F109662049F017FD42C018
:1010F000EF28E02AE12A09F440C08BE282933320F2
:10110000C9F08F01F32C08C0E0911601F09117018E
:10111000892F0995FA9471F0F80191918F019A3015
:1011200099F7E0911601F09117018DE099A70995C3
:1011300099A5EACFA9960FB6F894DEBF0FBECDBF32
:10114000DF91CF911F910F91FF90EF90DF90CF90A3
:10115000BF90AF909F908F907F906F905F904F90D7
:101160003F9008958824992454018E189F08A00A5E
:10117000B10A5BCF8DE28293C2CF80E28293BFCF70
:101180006F927F928F929F92AF92BF92CF92DF9297
:10119000EF92FF920F931F93CF93DF931F92CDB7E0
:1011A000DEB77A88CB88DC884E0185E1880E911CF9
:1011B0007720A9F086010F5F1F4FF60194919532B9
:1011C00049F19923A9F09A3009F46FC0E091160112
:1011D000F0911701892F099568017110EBCFF60185
:1011E0009081953291F186010F5F1F4F9111EBCFE6
:1011F00080E090E00F90DF91CF911F910F91FF90D1
:10120000EF90DF90CF90BF90AF909F908F907F90A6
:101210006F900895F2E0CF0ED11CF80104910436CE
:10122000D9F0083709F44AC0033629F4F4010081E3
:1012300092E0890E911C0A3009F45DC0E09116011C
:10124000F0911701802F0995B3CFF6010181C601F6
:1012500002966C01043629F7F401E080F180E2E0A7
:101260008E0E911CF7FC4EC080E1E81687E2F8066E
:1012700008F052C043E050E008EE13E0E016F1063B
:1012800080F49801ADECBCECAED18C0116950795BD
:101290001695079516950795415051094115510529
:1012A00069F72AE0A22EB12C14C0E0911601F0914A
:1012B00017018DE099830995998188CFF401E08029
:1012C000F180F2E08F0E911C80E1A82EB12C00E09D
:1012D00010E1C701B80151D1682E862F998338DEFD
:1012E000E62C9981F92EC801B50147D18B01611512
:1012F000710579F75DCFE0911601F09117018DE04E
:1013000009959CCFF194E194F108E0911601F091D8
:1013100017018DE20995A8CF9AE0A92EB12C00E122
:1013200017E2D7CF40E450E06AE571E081EB91E04D
:101330009FD640E450E06AE171E08AEB91E098C604
:10134000F1DF109219011092180188ED8AB987E631
:1013500089B910BC8FEF8093B0011092B90110923F
:10136000C3011092C201789408959093190180935B
:10137000180108950F931F938B019C01605C7D4BB6
:10138000804F9F4F660F771F881F991F660F771F2B
:10139000881F991F660F771F881F991FA901980141
:1013A000220F331F441F551F220F331F441F551F89
:1013B000220F331F441F551F220F331F441F551F79
:1013C000F0D02150310929B930BD1F910F910895F6
:1013D00081EB91E008958AEB91E008959091B0013E
:1013E0009923E1F38CB91092B0010895CF93DF9364
:1013F000EC012091B3013091B401232B31F08091A5
:10140000B5019091B601892B21F480E0DF91CF9155
:10141000089581EB91E039D688838FEFDF91CF91EA
:101420000895CF93DF931F92CDB7DEB7CE0101961B
:10143000DDDF882331F0898190E00F90DF91CF913B
:1014400008958FEF9FEFF9CF1092B6011092B5017A
:10145000089581E02091B5013091B601232B09F068
:1014600080E081950895682F8AEB91E068C68FEF40
:101470008093B9018AEB91E008D69091B00199234D
:10148000E1F38CB91092B00108951F920F920FB63C
:101490000F9211242F933F934F935F936F937F93FA
:1014A0008F939F93AF93BF93EF93FF938091B90175
:1014B000882361F08091BE019091BF01892BD1F406
:1014C0001092B9018FEF8093B00103C08FEF80932A
:1014D000B001FF91EF91BF91AF919F918F917F915B
:1014E0006F915F914F913F912F910F900FBE0F9091
:1014F0001F9018958AEB91E0C8D58CB9EACF1F925E
:101500000F920FB60F9211242F933F934F935F9337
:101510006F937F938F939F93AF93BF93EF93FF93BB
:101520008CB12091180130911901232BB1F0E09179
:101530001801F09119010995FF91EF91BF91AF91B9
:101540009F918F917F916F915F914F913F912F91DB
:101550000F900FBE0F901F901895682F81EB91E0B0
:10156000EED58111E9CF8091C2019091C30101961E
:101570009093C3018093C201DFCFAA1BBB1B51E133
:1015800007C0AA1FBB1FA617B70710F0A61BB70BF3
:10159000881F991F5A95A9F780959095BC01CD0198
:1015A0000895A1E21A2EAA1BBB1BFD010DC0AA1FA4
:1015B000BB1FEE1FFF1FA217B307E407F50720F0BC
:1015C000A21BB30BE40BF50B661F771F881F991F37
:1015D0001A9469F760957095809590959B01AC0180
:1015E000BD01CF010895A29FB001B39FC001A39F89
:1015F00001D0B29F700D811D1124911D0895CF93CC
:10160000DF938230910510F482E090E0E091C60112
:10161000F091C70120E030E0A0E0B0E0309739F170
:101620004081518148175907B8F04817590771F49C
:1016300082819381109729F013969C938E93129731
:101640002CC09093C7018093C60127C02115310596
:1016500031F04217530718F0A901DB0101C0EF0177
:101660009A01BD01DF010280F381E02DD7CF211562
:101670003105F9F0281B390B2430310580F48A81BB
:101680009B816115710521F0FB019383828304C066
:101690009093C7018093C601FE01329644C0FE01BB
:1016A000E20FF31F819391932250310939832883EC
:1016B0003AC02091C4013091C501232B41F42091FF
:1016C0006200309163003093C5012093C4012091E2
:1016D0006000309161002115310541F42DB73EB70E
:1016E0004091640050916500241B350BE091C401CA
:1016F000F091C501E217F307A0F42E1B3F0B28174A
:10170000390778F0AC014E5F5F4F2417350748F07A
:101710004E0F5F1F5093C5014093C4018193919375
:1017200002C0E0E0F0E0CF01DF91CF910895CF93C8
:10173000DF93009709F487C0FC013297138212826D
:10174000C091C601D091C701209781F420813181D9
:10175000280F391F8091C4019091C501821793070A
:1017600079F5F093C501E093C4016DC0DE0120E07E
:1017700030E0AE17BF0750F412964D915C9113976D
:101780009D014115510509F1DA01F3CFB383A2831D
:1017900040815181840F951F8A179B0771F48D91A9
:1017A0009C911197840F951F0296918380831296C6
:1017B0008D919C911397938382832115310529F490
:1017C000F093C701E093C6013EC0D9011396FC9384
:1017D000EE9312974D915D91A40FB51FEA17FB0789
:1017E00079F480819181840F951F0296D901119619
:1017F0009C938E938281938113969C938E931297E0
:10180000E0E0F0E08A819B81009719F0FE01EC0195
:10181000F9CFCE01029628813981820F931F209142
:10182000C4013091C5012817390769F4309729F4AC
:101830001092C7011092C60102C013821282D09387
:10184000C501C093C401DF91CF910895AEE0B0E02F
:10185000EBE2FCE09FC20D891E898F89988D26E0FE
:101860002C831A83098397FF02C080E090E80197D8
:101870009E838D83AE01455E5F4F698D7A8DCE016B
:10188000019611D04D815E8157FD0AC02F813885A8
:10189000421753070CF49A01F801E20FF31F10826C
:1018A0002E96E4E093C2ACE0B0E0E8E5FCE064C270
:1018B0007C016B018A01FC0117821682838181FF02
:1018C000B0C1CE0101964C01F7019381F60193FD61
:1018D000859193FF81916F01882309F49EC1853220
:1018E00039F493FD859193FF81916F01853221F445
:1018F000B70190E0B1D1E8CF512C312C20E020325B
:10190000A0F48B3269F030F4803259F0833269F4FC
:1019100020612CC08D3239F0803339F4216026C02B
:101920002260246023C0286021C027FD27C030ED3D
:10193000380F3A3078F426FF06C0FAE05F9E300D8B
:101940001124532E13C08AE0389E300D1124332EFB
:1019500020620CC08E3221F426FD5FC1206406C0D7
:101960008C3611F4206802C0883641F4F60193FDEC
:10197000859193FF81916F018111C1CF982F9F7D38
:101980009554933028F40C5F1F4FFFE3F9830DC08B
:10199000833631F0833771F0833509F057C021C0A9
:1019A000F801808189830E5F1F4F44244394512C9A
:1019B000540114C03801F2E06F0E711CF801A080D0
:1019C000B18026FF03C0652D70E002C06FEF7FEF8E
:1019D000C5012C8736D12C0183012C852F77222E2F
:1019E00016C03801F2E06F0E711CF801A080B180C2
:1019F00026FF03C0652D70E002C06FEF7FEFC501C9
:101A00002C8714D12C012C852068222E830123FCE5
:101A100019C0832D90E048165906A0F4B70180E262
:101A200090E01AD13A94F5CFF50127FC859127FE75
:101A300081915F01B70190E00FD131103A94F1E04C
:101A40004F1A51084114510479F7DEC0843611F061
:101A5000893631F5F80127FF07C0608171818281E5
:101A600093810C5F1F4F08C060817181882777FDCB
:101A70008095982F0E5F1F4F2F76B22E97FF09C0CB
:101A800090958095709561957F4F8F4F9F4F2068FF
:101A9000B22E2AE030E0A40111D1A82EA81843C02C
:101AA000853729F42F7EB22E2AE030E025C0F22FB0
:101AB000F97FBF2E8F36C1F018F4883579F0ADC0AC
:101AC000803719F0883721F0A8C02F2F2061B22E5F
:101AD000B4FE0DC08B2D8460B82E09C024FF0AC04F
:101AE0009F2F9660B92E06C028E030E005C020E1A7
:101AF00030E002C020E132E0F801B7FE07C06081AB
:101B00007181828193810C5F1F4F06C0608171815A
:101B100080E090E00E5F1F4FA401D0D0A82EA8183F
:101B2000FB2DFF77BF2EB6FE0BC02B2D2E7FA514ED
:101B300050F4B4FE0AC0B2FC08C02B2D2E7E05C0A6
:101B40007A2C2B2D03C07A2C01C0752C24FF0DC0DC
:101B5000FE01EA0DF11D8081803311F4297E09C058
:101B600022FF06C07394739404C0822F867809F014
:101B7000739423FD12C020FF06C05A2C731418F46E
:101B8000530C5718732C731460F4B70180E290E083
:101B90002C8762D073942C85F6CF731410F4371809
:101BA00001C0312C24FF11C0B70180E390E02C87E5
:101BB00053D02C8522FF16C021FF03C088E590E09A
:101BC00002C088E790E0B7010CC0822F867851F000
:101BD00021FD02C080E201C08BE227FD8DE2B7014A
:101BE00090E03AD0A51430F4B70180E390E034D00F
:101BF0005A94F8CFAA94F401EA0DF11D8081B7013F
:101C000090E02AD0A110F6CF332009F45DCEB701C1
:101C100080E290E021D03A94F7CFF7018681978156
:101C200002C08FEF9FEF2C96E2E1C2C0FC0105904D
:101C3000615070400110D8F7809590958E0F9F1FCE
:101C40000895FC016150704001900110D8F7809513
:101C500090958E0F9F1F08950F931F93CF93DF933F
:101C6000182F092FEB018B8181FD03C08FEF9FEFB0
:101C700020C082FF10C04E815F812C813D814217C0
:101C800053077CF4E881F9819F012F5F3F4F39832F
:101C90002883108306C0E885F985812F0995892B53
:101CA00029F72E813F812F5F3F4F3F832E83812F66
:101CB000902FDF91CF911F910F910895FA01AA27DC
:101CC000283051F1203181F1E8946F936E7F6E5F7F
:101CD0007F4F8F4F9F4FAF4FB1E03ED0B4E03CD02D
:101CE000670F781F891F9A1FA11D680F791F8A1F10
:101CF000911DA11D6A0F711D811D911DA11D20D077
:101D000009F468943F912AE0269F11243019305D30
:101D10003193DEF6CF010895462F4770405D419321
:101D2000B3E00FD0C9F7F6CF462F4F70405D4A336E
:101D300018F0495D31FD4052419302D0A9F7EACF36
:101D4000B4E0A6959795879577956795BA95C9F765
:101D500000976105710508959B01AC010A2E069458
:101D60005795479537952795BA95C9F7620F731F11
:101D7000841F951FA01D08952F923F924F925F924E
:101D80006F927F928F929F92AF92BF92CF92DF928B
:101D9000EF92FF920F931F93CF93DF93CDB7DEB7F0
:101DA000CA1BDB0B0FB6F894DEBF0FBECDBF099484
:101DB0002A88398848885F846E847D848C849B84DB
:101DC000AA84B984C884DF80EE80FD800C811B81E9
:101DD000AA81B981CE0FD11D0FB6F894DEBF0FBE18
:0A1DE000CDBFED010895F894FFCF88
:101DEA000000C8012000FFFF0100010001003200CD
:101DFA00320032003200320032003200210010007C
:101E0A0000003200320032003200210010000000CF
:101E1A000000000000003200210010000000000055
:101E2A0000000000000000000000000000000000A8
:101E3A000000000000000000110022003200000033
:101E4A0000000000000011002200320032003200BF
:101E5A00320000001100220032003200320032004B
:101E6A00320032003200256400256C75003A002FDA
:041E7A00005A00000A
:00000001FF
