:100000001BC035C034C005C232C031C039C32FC097
:100010002EC02DC02CC0CEC92AC092C928C027C06E
:1000200026C025C024C03031323334353637383914
:10003000414243444546000011241FBECFE5D4E0B1
:10004000DEBFCDBF10E0A0E6B0E0E0EAFCE102C018
:1000500005900D92A23FB107D9F721E0A2EFB0E0E1
:1000600001C01D92AA3BB207E1F7E9D317CEC8CF72
:10007000FC018FB7F89471836083538342831782A6
:100080001682158214828FBF0895FC019FB7F894E1
:100090002481358121153105D9F046815781A08110
:1000A000B181A40FB51F8C914F5F5F4F578346837B
:1000B000628173814617570730F421503109358327
:1000C00024839FBF0895461B570B57834683F5CF64
:1000D00080E09FBF0895FC01AFB7F894248135817B
:1000E00062177307A8F486819781860F971F9783FD
:1000F0008683428153818417950720F0841B950BDA
:1001000097838683261B370B35832483AFBF0895DF
:1001100015821482AFBF0895FC01CB014FB7F8944C
:1001200026813781820F931F6281738181D901906B
:10013000F081E02DE80FF91F80814FBF0895CF9324
:10014000DF93FC01D62FCFB7F894448155816281AB
:10015000738146175707A0F486819781840F951FF6
:1001600067D9A081B181A80FB91FDC9384819581E3
:10017000019695838483CFBF8FEFDF91CF91089550
:10018000CFBF80E0DF91CF910895FC014FB7F89485
:1001900082819381248135814FBF821B930B089507
:1001A0002FB7F894FC01158214822FBF089566239F
:1001B00069F1C19AC798BB9ABC9ABD9ABE9AC69873
:1001C000C598C498C39887FD23C086FDC59A85FD50
:1001D000C49A84FDC39AC29A92E09A95F1F7C298A4
:1001E000C698C598C498C39883FDC69A82FDC59ADF
:1001F00081FDC49A80FDC39AC29A82E08A95F1F784
:10020000C298C39AC49AC59AC69A0895C198D2CF83
:10021000C69ADBCFC198C79ABB98BC98BD98BE98C8
:10022000C29A82E08A95F1F7B39919C080E0B49937
:100230008062B5998064B6998068C29892E09A9578
:10024000F1F7C29A92E09A95F1F7B3998160B49967
:100250008260B5998460B6998860C298089580E1FB
:10026000E6CFD8DF87FDFDCF8AE08A95F1F7D2CFC0
:10027000CF93C82FF6DF60E08C2FCF9198CFCF932C
:10028000C82FEFDF61E08C2FCF9191CFCF93C82F94
:10029000662331F0E6DF60E080EC8C0FCF9187CFF2
:1002A000E0DF60E080E88C0FCF9181CFDADF90E073
:1002B0000895D7DF60E081E07ACFD3DF60E082E0AD
:1002C00076CFCF93C82FCDDFCA3021F061E08C2FDD
:1002D000CF916DCF803430F0C0E8C3DF60E08C2F69
:1002E000CF9165CFC0ECF9CFCF93DF93EC0121968E
:1002F000FC018081882321F0E4DF89918111FCCF0A
:10030000DF91CF910895CF93DF93EC012196FC010B
:100310008491882331F0D5DFFE01849121968111EB
:10032000FACFDF91CF910895CF93C82FB99ABF9A92
:10033000BA9ABB9ABC9ABD9ABE9AE0EAFCE8319799
:10034000F1F7C49AC39AC29A92E09A95F1F7C298CB
:10035000E0EBF6E33197F1F7C29A92E09A95F1F764
:10036000C2989AEA9A95F1F7C29A92E09A95F1F7B3
:10037000C2989AEA9A95F1F7C398C29A92E09A9530
:10038000F1F7C2989AEA9A95F1F76BDF60E088E29C
:100390000EDF67DF60E088E00ADF63DF60E081E0B6
:1003A00006DF5FDF60E086E002DF5BDF60E08C2F6E
:1003B000CF91FDCE369A3699FECF64B175B180E00B
:1003C00090E00895369A3699FECF64B175B180E019
:1003D00090E00895CF93DF93962FEA016FEF680FB7
:1003E0008FEF890F53DFCE01DF91CF917DCFCF9378
:1003F000DF931F92CDB7DEB7962F6FEF680F8FEFA9
:10040000890F498343DF4981842F0F90DF91CF917A
:1004100058CF1F920F920FB60F9211242F933F9334
:100420004F935F936F937F938F939F93EF93FF937C
:1004300082B78A5F82BF80916A0090916B00892B9E
:1004400009F05FC0809106019091070120910C0195
:1004500030910D01AC01440F551FFA01EA56FF4FD0
:10046000608171816217730709F4E0C02F5F3F4F0D
:1004700030930D0120930C012091680030916900A8
:10048000232B09F469C02091080130910901880FDC
:10049000991FFC01E254FF4F4081518142175307DD
:1004A00009F4ADC02F5F3F4F30930901209308013D
:1004B00020916C0030916D00232B09F075C02091C4
:1004C0000A0130910B01FC01E259FF4F408151813B
:1004D0004217530709F4C1C02F5F3F4F30930B0100
:1004E00020930A01FF91EF919F918F917F916F91DE
:1004F0005F914F913F912F910F900FBE0F901F90E2
:10050000189580910601909107019C01220F331FDD
:10051000F901EE52FF4F4081518160910C017091C1
:100520000D014617570709F463C0F901EA56FF4F5A
:1005300020813181232B09F055C010920D011092BA
:100540000C0110926B0010926A00209168003091AB
:100550006900232B09F097CF209108013091090100
:10056000880F991FFC01EE57FF4F408151814217C0
:10057000530709F097CFFC01E254FF4F20813181EE
:10058000232B39F0939A8091060190910701880FEF
:10059000991F109209011092080121E030E0309378
:1005A00069002093680084CF20910A0130910B01EB
:1005B000FC01E655FF4F408151814217530709F076
:1005C0008BCFFC01E259FF4F80819181892B09F08B
:1005D000949810920B0110920A0110926D001092E3
:1005E0006C0080CF92988091060190910701A5CF71
:1005F0004F5F5F4F50930D0140930C01A6CFFC015C
:10060000EE57FF4F20813181232B39F09398809151
:10061000060190910701880F991F1092090110920D
:100620000801109269001092680042CFFA01EE5260
:10063000FF4F20813181232B29F0929A809106016E
:100640009091070110920D0110920C0121E030E011
:1006500030936B0020936A0078CFFC01E655FF4F82
:1006600080819181892B09F0949A10920B0110924C
:100670000A0181E090E090936D0080936C0032CF8E
:100680001F920F920FB60F9211248F939F93AF93E7
:10069000BF938091F4009091F500009751F1823062
:1006A00091053CF001969093F5008093F4000C972F
:1006B00001F11092000110920101109202011092BA
:1006C0000301369A3699FECF84B195B1A0E0B0E02F
:1006D0008093000190930101A0930201B093030164
:1006E000BF91AF919F918F910F900FBE0F901F9070
:1006F000189581E090E09093F5008093F400D9CFB5
:1007000010920D0110920C01109209011092080133
:1007100010920B0110920A0110926B0010926A0065
:10072000109269001092680010926D0010926C0097
:100730000895FF920F931F93CF93DF93809103014E
:100740008F93809102018F93809101018F9380910B
:1007500000018F9386EE90E09F938F931F9284E029
:100760008F9380919C018F9380919B018F93C9D728
:10077000C0919F01D091A00160E080E087DDCE01B3
:10078000B3DD60E088E082DD8AEE90E0ADDD80914F
:1007900007018F93809106018F93CCEED0E0DF9319
:1007A000CF931F92F2E0FF2EFF9280919E018F93D4
:1007B00080919D018F93A5D700919D0110919E017D
:1007C00060E089E063DDC8018FDD60E08AE05EDD26
:1007D0008FEE90E089DD809197018F938091960153
:1007E0008F93DF93CF931F92FF9280919A011F9274
:1007F0008F9387D7C0919A01D0E060E08BE046DD0F
:10080000CE0172DDC091A10160E08DE03FDD8C2F53
:1008100058DDC0919B01D0919C0161E080E036DD04
:100820008DB79EB74A960FB6F8949EBF0FBE8DBF88
:10083000CE01DF91CF911F910F91FF9055CD89E0AF
:1008400090E090939701809396018AE58093A101AF
:1008500086E090E02FD690939C0180939B0182E0EC
:1008600090E028D690939E0180939D0182E090E0D5
:1008700021D680939A0188E090E01CD69093A00145
:1008800080939F0188E090E015D690939501809326
:10089000940186E090E00ED69093990180939801A0
:1008A00010920001109201011092020110920301B6
:1008B0001092FC001092FD001092FE001092FF00BA
:1008C0008FEF81BB12BAA098A1988CE02DDD93D454
:1008D00089E499E0D3D185E886B985E087B980E2DB
:1008E00083BD85B5886085BD89B7806889BF85B5BA
:1008F000826085BD8AEF9EE19BBD8ABD8EB5886012
:100900008EBD89B7806189BF8EB585608EBD7894B4
:1009100080E29EE40197F1F789E4B5D1CC24C39439
:10092000D12C52E0A52EB12CC0E4DCE9D2C08091DC
:10093000FA009091FB00892B09F0CDC0D092FB000A
:10094000C092FA00809106019091070120919601D2
:100950003091970182179307ECF401969093070169
:100960008093060110920D0110920C011092090162
:100970001092080110920B0110920A0110926B0064
:1009800010926A00109269001092680010926D0037
:1009900010926C00999BAEC08091F8009091F90084
:1009A000892B09F0A7C0D092F900C092F80080917D
:1009B00006019091070118161906ECF4019790931F
:1009C00007018093060110920D0110920C01109204
:1009D00009011092080110920B0110920A01109265
:1009E0006B0010926A0010926900109268001092D9
:1009F0006D0010926C0040910001509101016091D6
:100A00000201709103018091FC009091FD00A09182
:100A1000FE00B091FF00481759076A077B07F9F0FD
:100A20008CE431D1E0900001F090010100910201CD
:100A30001091030120E340E064E08AE030D280912D
:100A4000000190910101A0910201B09103018093F6
:100A5000FC009093FD00A093FE00B093FF00209156
:100A6000060130910701809104019091050128173A
:100A70003907B9F080E507D1E0900601F090070151
:100A80000027F7FC0095102F20E340E064E08AE0A7
:100A900006D2809106019091070190930501809301
:100AA00004018091F4009091F500019709F441C090
:100AB0002BD4882369F18091F2009091F300019684
:100AC0009093F3008093F2004997D1F1CE01019702
:100AD000F1F798992CCF98995DCF8091FA00909179
:100AE000FB00019709F056CF1092FB001092FA001C
:100AF000999952CF99997FCF8091F8009091F90000
:100B0000019709F078CF1092F9001092F80073CF96
:100B1000E3D39093F7008093F6008F3F2FEF920777
:100B200051F28A30910590F4909307018093060169
:100B3000C2CF84E5A8D0B092F500A092F400B8CF5F
:100B4000F8DD1092F3001092F200C0CF83329105CD
:100B5000F9F08432910579F18435910509F0ABCF34
:100B600000E010E0D1D38111FDCFE0909F01F09023
:100B7000A001E00EF11EB0D3F70180830F5F1F4F7D
:100B80000830110579F71092F5001092F40093CF18
:100B9000BBD38111FDCFA0D3909397018093960191
:100BA0001092070110920601AFD38111FDCF94D3AB
:100BB0008093A10180CFA8D38111FDCF8DD39093D5
:100BC000670080936600A0D38111FDCF009166007D
:100BD0001091670081D3F801EE0FFF1FEE52FF4F17
:100BE0009183808391D38111FDCF00916600109194
:100BF000670072D3F801EE0FFF1FE254FF4F91839D
:100C0000808382D38111FDCF00916600109167002F
:100C100063D3F801EE0FFF1FE655FF4F91838083EA
:100C200073D38111FDCF009166001091670054D3FA
:100C3000F801EE0FFF1FEA56FF4F9183808364D3C4
:100C40008111FDCF009166001091670045D3F80136
:100C5000EE0FFF1FEE57FF4F9183808355D3811115
:100C6000FDCF009166001091670036D3F801EE0FBA
:100C7000FF1FE259FF4F918380831DCF9093110195
:100C8000809310010895CF93C82F8A3039F0E091F6
:100C90001001F09111018C2FCF910994E091100176
:100CA000F09111018DE00995E0911001F091110191
:100CB0008C2FCF9109941F93CF93DF930097C9F0A6
:100CC000FC0110811123A9F0EC01219609C0E091EB
:100CD0001001F0911101812F09951991112349F00B
:100CE0001A30A9F7E0911001F09111018DE00995FA
:100CF000EECFDF91CF911F910895CF92DF92EF92C7
:100D0000FF920F931F93CF93DF931F92CDB7DEB760
:100D10007A010097A9F1FC01680F791F08C06F01E3
:100D20008FEFC81AD80A8081882329F0F6016F0155
:100D3000E617F707A1F7E114F10411F100E010E064
:100D400010C0BFEFCB1ADB0A9A3021F1E0911001FD
:100D5000F0911101892F09950F5F1F4F0E151F0587
:100D600079F0D6019C919111ECCFE0911001F091B6
:100D7000110180E209950F5F1F4F0E151F0589F7BE
:100D80000F90DF91CF911F910F91FF90EF90DF9027
:100D9000CF900895E0911001F09111018DE09983B9
:100DA00009959981D3CF1F93CF93DF930097D9F003
:100DB000EC012196FC01149111110CC014C0E091BA
:100DC0001001F0911101812F0995FE0114912196D6
:100DD000112349F01A3099F7E0911001F0911101B7
:100DE0008DE00995ECCFDF91CF911F910895E091AF
:100DF0001001F09111018DE00995E0911001F09141
:100E000011018AE00994CF938F70E82FF0E0EA5D3A
:100E1000FF4FC491CA3039F0E0911001F0911101F7
:100E20008C2FCF910994E0911001F09111018DE088
:100E30000995E0911001F09111018C2FCF91099447
:100E4000CF93C82F82958F70DEDF8C2FCF91DBCFB1
:100E50001F93CF93DF931F92CDB7DEB7182F892F43
:100E600082958F709983CFDF9981892FCCDF812F75
:100E700082958F70C8DF812F0F90DF91CF911F91E6
:100E8000C2CFCF92DF92EF92FF926B017C01C7013C
:100E9000DFDFC601FF90EF90DF90CF90D9CF3F9278
:100EA0004F925F926F927F928F929F92AF92BF927A
:100EB000CF92DF92EF92FF920F931F93CF93DF9326
:100EC000CDB7DEB7A9970FB6F894DEBF0FBECDBF82
:100ED000362E722E442311F017FD9FC04701580192
:100EE000DD24D394411101C0D12CCC24CA94C30C6D
:100EF000CD1818A2282F30E040E050E029A33AA3F3
:100F00004BA35CA3C501B401A7D2FB01EF70FF277F
:100F1000EA5DFF4F64916F8FC501B40129A13AA129
:100F20004BA15CA199D249015A012E013EE1430E29
:100F3000511CEDA2FEA20FA318A70C2D1C2D6D2C89
:100F4000C9A0DAA0EBA0FCA017C0C501B401A7019D
:100F5000960182D2FB01EF70FF27EA5DFF4F64919B
:100F6000F2016083C501B401A701960175D2490160
:100F70005A01F1E04F1A5108115040F081149104C8
:100F8000A104B10411F7F2017082F3CFC02EEDA0DD
:100F9000FEA00FA118A5FE017F96EC19F1096620AD
:100FA00049F017FD42C0EF28E02AE12A09F440C0C9
:100FB0008BE282933320C9F08F01F32C08C0E091BB
:100FC0001001F0911101892F0995FA9471F0F8013F
:100FD00091918F019A3099F7E0911001F0911101F0
:100FE0008DE099A7099599A5EACFA9960FB6F8942F
:100FF000DEBF0FBECDBFDF91CF911F910F91FF904C
:10100000EF90DF90CF90BF90AF909F908F907F90A8
:101010006F905F904F903F900895882499245401D9
:101020008E189F08A00AB10A5BCF8DE28293C2CFCF
:1010300080E28293BFCF6F927F928F929F92AF9206
:10104000BF92CF92DF92EF92FF920F931F93CF93B5
:10105000DF931F92CDB7DEB77A88CB88DC884E014C
:1010600085E1880E911C7720A9F086010F5F1F4F44
:10107000F6019491953249F19923A9F09A3009F437
:101080006FC0E0911001F0911101892F099568015D
:101090007110EBCFF6019081953291F186010F5FCF
:1010A0001F4F9111EBCF80E090E00F90DF91CF9137
:1010B0001F910F91FF90EF90DF90CF90BF90AF9076
:1010C0009F908F907F906F900895F2E0CF0ED11C8B
:1010D000F80104910436D9F0083709F44AC0033600
:1010E00029F4F401008192E0890E911C0A3009F480
:1010F0005DC0E0911001F0911101802F0995B3CFEF
:10110000F6010181C60102966C01043629F7F4014B
:10111000E080F180E2E08E0E911CF7FC4EC080E191
:10112000E81687E2F80608F052C043E050E008EE07
:1011300013E0E016F10680F49801ADECBCECAED102
:101140008C011695079516950795169507954150AC
:1011500051094115510569F72AE0A22EB12C14C09E
:10116000E0911001F09111018DE099830995998129
:1011700088CFF401E080F180F2E08F0E911C80E1D5
:10118000A82EB12C00E010E1C701B80151D1682EA2
:10119000862F998338DEE62C9981F92EC801B50196
:1011A00047D18B016115710579F75DCFE091100191
:1011B000F09111018DE009959CCFF194E194F10833
:1011C000E0911001F09111018DE20995A8CF9AE00C
:1011D000A92EB12C00E117E2D7CF40E450E064E53E
:1011E00071E083EA91E044D740E450E064E171E0CB
:1011F0008CEA91E03DC7F1DF1092130110921201C9
:1012000088ED8AB987E689B910BC8FEF8093A20177
:101210001092AB011092B5011092B4017894089528
:10122000909313018093120108950F931F938B01E4
:101230009C01605C7D4B804F9F4F660F771F881F1E
:10124000991F660F771F881F991F660F771F881FCA
:10125000991FA9019801220F331F441F551F220F08
:10126000331F441F551F220F331F441F551F220FCA
:10127000331F441F551FF0D02150310929B930BD0B
:101280001F910F91089583EA91E008958CEA91E00F
:1012900008959091A2019923E1F38CB91092A201D3
:1012A0000895CF93DF93EC012091A5013091A60121
:1012B000232B31F08091A7019091A801892B21F473
:1012C00080E0DF91CF91089583EA91E0DED68883B4
:1012D0008FEFDF91CF910895CF93DF931F92CDB71A
:1012E000DEB7CE010196DDDF882331F0898190E001
:1012F0000F90DF91CF9108958FEF9FEFF9CF10926C
:10130000A8011092A701089581E02091A7013091D2
:10131000A801232B09F080E081950895682F8CEABD
:1013200091E00DC78FEF8093AB018CEA91E0ADD6D1
:101330009091A2019923E1F38CB91092A201089532
:101340001F920F920FB60F9211242F933F934F933A
:101350005F936F937F938F939F93AF93BF93EF931D
:10136000FF938091AB01882361F08091B00190914F
:10137000B101892BD1F41092AB018FEF8093A201C0
:1013800003C08FEF8093A201FF91EF91BF91AF91C6
:101390009F918F917F916F915F914F913F912F918D
:1013A0000F900FBE0F901F9018958CEA91E06DD6AC
:1013B0008CB9EACF1F920F920FB60F9211242F9380
:1013C0003F934F935F936F937F938F939F93AF93CD
:1013D000BF93EF93FF938CB12091120130911301D1
:1013E000232BB1F0E0911201F09113010995FF91C7
:1013F000EF91BF91AF919F918F917F916F915F918D
:101400004F913F912F910F900FBE0F901F90189505
:10141000682F83EA91E093D68111E9CF8091B401DE
:101420009091B50101969093B5018093B401DFCFFF
:10143000AA1BBB1B51E107C0AA1FBB1FA617B707FA
:1014400010F0A61BB70B881F991F5A95A9F7809516
:101450009095BC01CD010895A1E21A2EAA1BBB1BD9
:10146000FD010DC0AA1FBB1FEE1FFF1FA217B30770
:10147000E407F50720F0A21BB30BE40BF50B661F86
:10148000771F881F991F1A9469F76095709580954A
:1014900090959B01AC01BD01CF010895A29FB001C1
:1014A000B39FC001A39F01D0B29F700D811D112475
:1014B000911D0895CF93DF938230910510F482E05F
:1014C00090E0E091B801F091B90120E030E0A0E0B7
:1014D000B0E0309739F14081518148175907B8F091
:1014E0004817590771F482819381109729F0139658
:1014F0009C938E9312972CC09093B9018093B8015E
:1015000027C02115310531F04217530718F0A90102
:10151000DB0101C0EF019A01BD01DF010280F3810F
:10152000E02DD7CF21153105F9F0281B390B2430D8
:10153000310580F48A819B816115710521F0FB01E1
:101540009383828304C09093B9018093B801FE0114
:10155000329644C0FE01E20FF31F81939193225013
:101560003109398328833AC02091B6013091B701FF
:10157000232B41F420916200309163003093B70136
:101580002093B60120916000309161002115310552
:1015900041F42DB73EB74091640050916500241B83
:1015A000350BE091B601F091B701E217F307A0F413
:1015B0002E1B3F0B2817390778F0AC014E5F5F4FA9
:1015C0002417350748F04E0F5F1F5093B701409323
:1015D000B6018193919302C0E0E0F0E0CF01DF918A
:1015E000CF910895CF93DF93009709F487C0FC0152
:1015F000329713821282C091B801D091B90120971D
:1016000081F420813181280F391F8091B60190919A
:10161000B7018217930779F5F093B701E093B6010C
:101620006DC0DE0120E030E0AE17BF0750F4129627
:101630004D915C9113979D014115510509F1DA0116
:10164000F3CFB383A28340815181840F951F8A1702
:101650009B0771F48D919C911197840F951F0296B1
:101660009183808312968D919C91139793838283AB
:101670002115310529F4F093B901E093B8013EC07A
:10168000D9011396FC93EE9312974D915D91A40F9F
:10169000B51FEA17FB0779F480819181840F951FAC
:1016A0000296D90111969C938E9382819381139611
:1016B0009C938E931297E0E0F0E08A819B810097E3
:1016C00019F0FE01EC01F9CFCE0102962881398193
:1016D000820F931F2091B6013091B7012817390767
:1016E00069F4309729F41092B9011092B80102C040
:1016F00013821282D093B701C093B601DF91CF91CC
:101700000895AEE0B0E0E6E8FBE09FC20D891E89D7
:101710008F89988D26E02C831A83098397FF02C056
:1017200080E090E801979E838D83AE01455E5F4F18
:10173000698D7A8DCE01019611D04D815E8157FD64
:101740000AC02F813885421753070CF49A01F8011B
:10175000E20FF31F10822E96E4E093C2ACE0B0E0FB
:10176000E3EBFBE064C27C016B018A01FC011782A0
:101770001682838181FFB0C1CE0101964C01F70131
:101780009381F60193FD859193FF81916F018823E9
:1017900009F49EC1853239F493FD859193FF8191BF
:1017A0006F01853221F4B70190E0B1D1E8CF512C1F
:1017B000312C20E02032A0F48B3269F030F48032FA
:1017C00059F0833269F420612CC08D3239F08033B6
:1017D00039F4216026C02260246023C0286021C023
:1017E00027FD27C030ED380F3A3078F426FF06C0C9
:1017F000FAE05F9E300D1124532E13C08AE0389E0C
:10180000300D1124332E20620CC08E3221F426FDBF
:101810005FC1206406C08C3611F4206802C088368F
:1018200041F4F60193FD859193FF81916F01811140
:10183000C1CF982F9F7D9554933028F40C5F1F4F94
:10184000FFE3F9830DC0833631F0833771F08335C0
:1018500009F057C021C0F801808189830E5F1F4FB6
:1018600044244394512C540114C03801F2E06F0E0B
:10187000711CF801A080B18026FF03C0652D70E0C7
:1018800002C06FEF7FEFC5012C8736D12C01830199
:101890002C852F77222E16C03801F2E06F0E711CB6
:1018A000F801A080B18026FF03C0652D70E002C062
:1018B0006FEF7FEFC5012C8714D12C012C85206898
:1018C000222E830123FC19C0832D90E0481659066F
:1018D000A0F4B70180E290E01AD13A94F5CFF50177
:1018E00027FC859127FE81915F01B70190E00FD120
:1018F00031103A94F1E04F1A51084114510479F72C
:10190000DEC0843611F0893631F5F80127FF07C0B3
:1019100060817181828193810C5F1F4F08C060815B
:101920007181882777FD8095982F0E5F1F4F2F7646
:10193000B22E97FF09C090958095709561957F4F65
:101940008F4F9F4F2068B22E2AE030E0A40111D1C2
:10195000A82EA81843C0853729F42F7EB22E2AE07E
:1019600030E025C0F22FF97FBF2E8F36C1F018F47A
:10197000883579F0ADC0803719F0883721F0A8C0DC
:101980002F2F2061B22EB4FE0DC08B2D8460B82E97
:1019900009C024FF0AC09F2F9660B92E06C028E018
:1019A00030E005C020E130E002C020E132E0F80183
:1019B000B7FE07C060817181828193810C5F1F4FE8
:1019C00006C06081718180E090E00E5F1F4FA4012E
:1019D000D0D0A82EA818FB2DFF77BF2EB6FE0BC0C7
:1019E0002B2D2E7FA51450F4B4FE0AC0B2FC08C003
:1019F0002B2D2E7E05C07A2C2B2D03C07A2C01C0F6
:101A0000752C24FF0DC0FE01EA0DF11D808180338D
:101A100011F4297E09C022FF06C07394739404C098
:101A2000822F867809F0739423FD12C020FF06C030
:101A30005A2C731418F4530C5718732C731460F445
:101A4000B70180E290E02C8762D073942C85F6CFAA
:101A5000731410F4371801C0312C24FF11C0B701E2
:101A600080E390E02C8753D02C8522FF16C021FF05
:101A700003C088E590E002C088E790E0B7010CC0A1
:101A8000822F867851F021FD02C080E201C08BE2F6
:101A900027FD8DE2B70190E03AD0A51430F4B701EC
:101AA00080E390E034D05A94F8CFAA94F401EA0D80
:101AB000F11D8081B70190E02AD0A110F6CF33202C
:101AC00009F45DCEB70180E290E021D03A94F7CFDF
:101AD000F7018681978102C08FEF9FEF2C96E2E19C
:101AE000C2C0FC010590615070400110D8F780958C
:101AF00090958E0F9F1F0895FC01615070400190DA
:101B00000110D8F7809590958E0F9F1F08950F9321
:101B10001F93CF93DF93182F092FEB018B8181FD4A
:101B200003C08FEF9FEF20C082FF10C04E815F8106
:101B30002C813D81421753077CF4E881F9819F0194
:101B40002F5F3F4F39832883108306C0E885F985CE
:101B5000812F0995892B29F72E813F812F5F3F4FD8
:101B60003F832E83812F902FDF91CF911F910F9173
:101B70000895FA01AA27283051F1203181F1E89423
:101B80006F936E7F6E5F7F4F8F4F9F4FAF4FB1E070
:101B90003ED0B4E03CD0670F781F891F9A1FA11D6B
:101BA000680F791F8A1F911DA11D6A0F711D811D6C
:101BB000911DA11D20D009F468943F912AE0269F31
:101BC00011243019305D3193DEF6CF010895462F90
:101BD0004770405D4193B3E00FD0C9F7F6CF462F71
:101BE0004F70405D4A3318F0495D31FD40524193DA
:101BF00002D0A9F7EACFB4E0A69597958795779597
:101C00006795BA95C9F700976105710508959B011D
:101C1000AC010A2E06945795479537952795BA95A6
:101C2000C9F7620F731F841F951FA01D08952F927F
:101C30003F924F925F926F927F928F929F92AF925C
:101C4000BF92CF92DF92EF92FF920F931F93CF93A9
:101C5000DF93CDB7DEB7CA1BDB0B0FB6F894DEBF40
:101C60000FBECDBF09942A88398848885F846E8466
:101C70007D848C849B84AA84B984C884DF80EE80B0
:101C8000FD800C811B81AA81B981CE0FD11D0FB6B9
:101C9000F894DEBF0FBECDBFED010895F894FFCFDD
:101CA0000000BA012000FFFF010001000100320026
:101CB00032003200320032003200320021001000C7
:101CC000000032003200320032002100100000001B
:101CD00000000000000032002100100000000000A1
:101CE00000000000000000000000000000000000F4
:101CF000000000000000000011002200320000007F
:101D0000000000000000110022003200320032000A
:101D10003200000011002200320032003200320096
:101D2000320032003200256C750020002564002F3F
:021D30000000B1
:00000001FF
