:100000001BC035C034C0F6C132C031C02AC32FC0B6
:100010002EC02DC02CC0D2C92AC096C928C027C066
:1000200026C025C024C03031323334353637383914
:10003000414243444546000011241FBECFE5D4E0B1
:10004000DEBFCDBF10E0A0E6B0E0E0E8FEE102C018
:1000500005900D92A43FB107D9F721E0A4EFB0E0DD
:1000600001C01D92A23CB207E1F74FD407CFC8CF21
:10007000FC018FB7F89471836083538342831782A6
:100080001682158214828FBF0895FC019FB7F894E1
:100090002481358121153105D9F046815781A08110
:1000A000B181A40FB51F8C914F5F5F4F578346837B
:1000B000628173814617570730F421503109358327
:1000C00024839FBF0895461B570B57834683F5CF64
:1000D00080E09FBF0895FC01AFB7F894248135817B
:1000E00062177307A8F486819781860F971F9783FD
:1000F0008683428153818417950720F0841B950BDA
:1001000097838683261B370B35832483AFBF0895DF
:1001100015821482AFBF0895FC01CB014FB7F8944C
:1001200026813781820F931F6281738185D9019067
:10013000F081E02DE80FF91F80814FBF0895CF9324
:10014000DF93FC01D62FCFB7F894448155816281AB
:10015000738146175707A0F486819781840F951FF6
:100160006BD9A081B181A80FB91FDC9384819581DF
:10017000019695838483CFBF8FEFDF91CF91089550
:10018000CFBF80E0DF91CF910895FC014FB7F89485
:1001900082819381248135814FBF821B930B089507
:1001A0002FB7F894FC01158214822FBF089566239F
:1001B00069F1C19AC798BB9ABC9ABD9ABE9AC69873
:1001C000C598C498C39887FD23C086FDC59A85FD50
:1001D000C49A84FDC39AC29A92E09A95F1F7C298A4
:1001E000C698C598C498C39883FDC69A82FDC59ADF
:1001F00081FDC49A80FDC39AC29A82E08A95F1F784
:10020000C298C39AC49AC59AC69A0895C198D2CF83
:10021000C69ADBCFC198C79ABB98BC98BD98BE98C8
:10022000C29A82E08A95F1F7B39919C080E0B49937
:100230008062B5998064B6998068C29892E09A9578
:10024000F1F7C29A92E09A95F1F7B3998160B49967
:100250008260B5998460B6998860C298089580E1FB
:10026000E6CFD8DF87FDFDCF8AE08A95F1F7D2CFC0
:10027000CF93C82FF6DF60E08C2FCF9198CFCF932C
:10028000C82FEFDF61E08C2FCF9191CFCF93C82F94
:10029000662331F0E6DF60E080EC8C0FCF9187CFF2
:1002A000E0DF60E080E88C0FCF9181CFDADF90E073
:1002B0000895D7DF60E081E07ACFD3DF60E082E0AD
:1002C00076CFCF93C82FCDDFCA3021F061E08C2FDD
:1002D000CF916DCF803430F0C0E8C3DF60E08C2F69
:1002E000CF9165CFC0ECF9CFCF93DF93EC0121968E
:1002F000FC018081882321F0E4DF89918111FCCF0A
:10030000DF91CF910895CF93DF93EC012196FC010B
:100310008491882331F0D5DFFE01849121968111EB
:10032000FACFDF91CF910895CF93C82FB99ABF9A92
:10033000BA9ABB9ABC9ABD9ABE9AE0EAFCE8319799
:10034000F1F7C49AC39AC29A92E09A95F1F7C298CB
:10035000E0EBF6E33197F1F7C29A92E09A95F1F764
:10036000C2989AEA9A95F1F7C29A92E09A95F1F7B3
:10037000C2989AEA9A95F1F7C398C29A92E09A9530
:10038000F1F7C2989AEA9A95F1F76BDF60E088E29C
:100390000EDF67DF60E088E00ADF63DF60E081E0B6
:1003A00006DF5FDF60E086E002DF5BDF60E08C2F6E
:1003B000CF91FDCE369A3699FECFA4B1B5B19D014D
:1003C00071D8A8D811D97AD80895369A3699FECF1F
:1003D00064B175B180E090E00895CF93DF93962FDC
:1003E000EA016FEF680F8FEF890F50DFCE01DF91C9
:1003F000CF917ACF1F920F920FB60F9211242F93A5
:100400003F934F935F936F937F938F939F93EF935C
:10041000FF9382B78A5F82BF80916A0090916B00E0
:10042000892B09F05FC080910C0190910D01209102
:10043000120130911301AC01440F551FFA01EA5625
:10044000FF4F608171816217730709F4E0C02F5F6D
:100450003F4F309313012093120120916800309197
:100460006900232B09F469C020910E0130910F011E
:10047000880F991FFC01E254FF4F408151814217C0
:10048000530709F4ADC02F5F3F4F30930F01209306
:100490000E0120916C0030916D00232B09F075C086
:1004A0002091100130911101FC01E259FF4F408170
:1004B00051814217530709F4C1C02F5F3F4F30935A
:1004C000110120931001FF91EF919F918F917F91E6
:1004D0006F915F914F913F912F910F900FBE0F90B1
:1004E0001F90189580910C0190910D019C01220F95
:1004F000331FF901EE52FF4F40815181609112018B
:10050000709113014617570709F463C0F901EA56C1
:10051000FF4F20813181232B09F055C01092130128
:100520001092120110926B0010926A0020916800E4
:1005300030916900232B09F097CF20910E01309163
:100540000F01880F991FFC01EE57FF4F4081518129
:100550004217530709F097CFFC01E254FF4F208167
:100560003181232B39F0939A80910C0190910D01E8
:10057000880F991F10920F0110920E0121E030E0B8
:10058000309369002093680084CF2091100130914E
:100590001101FC01E655FF4F40815181421753077D
:1005A00009F08BCFFC01E259FF4F80819181892BAB
:1005B00009F09498109211011092100110926D00A0
:1005C00010926C0080CF929880910C0190910D0157
:1005D000A5CF4F5F5F4F5093130140931201A6CFF9
:1005E000FC01EE57FF4F20813181232B39F0939886
:1005F00080910C0190910D01880F991F10920F01AD
:1006000010920E01109269001092680042CFFA0118
:10061000EE52FF4F20813181232B29F0929A809155
:100620000C0190910D01109213011092120121E022
:1006300030E030936B0020936A0078CFFC01E655E0
:10064000FF4F80819181892B09F0949A10921101BA
:100650001092100181E090E090936D0080936C0007
:1006600032CF1F920F920FB60F9211242F933F9308
:100670004F935F936F937F938F939F93AF93BF93AA
:10068000EF93FF938091FA009091FB000196909375
:10069000FB008093FA00CC97A9F18091F80090912B
:1006A000F900CC9769F48091F6009091F7000196DB
:1006B0009093F7008093F6001092F9001092F800E2
:1006C0001092060110920701109208011092090180
:1006D00071DE609306017093070180930801909387
:1006E0000901FF91EF91BF91AF919F918F917F9100
:1006F0006F915F914F913F912F910F900FBE0F908F
:100700001F9018958091F8009091F90001969093B0
:10071000F9008093F8001092FB001092FA00C1CF0C
:10072000109213011092120110920F0110920E01FB
:10073000109211011092100110926B0010926A0039
:10074000109269001092680010926D0010926C0077
:100750000895FF920F931F93CF93DF938091090128
:100760008F93809108018F93809107018F938091DF
:1007700006018F9386EE90E09F938F931F9284E003
:100780008F938091A4018F938091A3018F93A9D817
:100790008091FB008F938091FA008F93CAEED0E096
:1007A000DF93CF931F9213E01F938091A2018F9349
:1007B0008091A1018F9395D88091F9008F938091BA
:1007C000F8008F93DF93CF931F921F938091A8011E
:1007D0008F938091A7018F9384D88091F7008F9396
:1007E0008091F6008F93DF93CF931F921F93809198
:1007F0009F018F9380919E018F9373D88DB79EB781
:1008000082960FB6F8949EBF0FBE8DBF52DD009149
:100810009E0110919F0160E080E038DDC80164DD39
:1008200060E082E033DD8DEE90E05EDD0091A701B7
:100830001091A80160E083E029DDC80155DD60E08A
:1008400085E024DD8DEE90E04FDD0091A101109157
:10085000A20160E086E01ADDC80146DD80910D014D
:100860008F9380910C018F93DF93CF931F92F2E0CF
:10087000FF2EFF928091A6018F938091A5018F9307
:1008800030D80091A5011091A60160E089E0FEDC5E
:10089000C8012ADD60E08AE0F9DC8FEE90E024DD1B
:1008A00080919B018F9380919A018F93DF93CF93D7
:1008B0001F92FF928091A0011F928F9312D8C09136
:1008C000A001D0E060E08BE0E1DCCE010DDDC09165
:1008D000A901D0E060E08DE0D9DCCE0105DDC0915A
:1008E000A301D091A40161E085E0D0DC8DB79EB773
:1008F00040960FB6F8949EBF0FBE8DBFCE01DF911C
:10090000CF911F910F91FF90EFCC89E090E09093F1
:100910009B0180939A0181EF90E08093A90186E08A
:1009200090E0B8D69093A4018093A30182E090E078
:10093000B1D69093A6018093A50182E090E0AAD65B
:100940008093A00183E090E0A5D69093A2018093CC
:10095000A10183E090E09ED69093A8018093A70127
:1009600083E090E097D690939F0180939E0186E06C
:1009700090E090D690939D0180939C011092060187
:1009800010920701109208011092090110920201C1
:100990001092030110920401109205018FEF81BBA8
:1009A00012BAA098A1988CE0BFDC29D48DE499E01C
:1009B00069D185E886B985E087B980E283BD85B5D0
:1009C000886085BD89B7806889BF85B5826085BD2F
:1009D0008AEF9EE19BBD8ABD8EB588608EBD89B7CA
:1009E000806189BF8EB585608EBD789480E29EE47B
:1009F0000197F1F7CC24C394D12CC0E4DCE9C7C043
:100A00008091000190910101892B09F0C2C0D09220
:100A10000101C092000180910C0190910D0189307B
:100A20009105ECF4019690930D0180930C011092C6
:100A300013011092120110920F0110920E011092E8
:100A400011011092100110926B0010926A00109226
:100A500069001092680010926D0010926C00999BD2
:100A60009EC08091FE009091FF00892B09F097C0F5
:100A7000D092FF00C092FE0080910C0190910D0178
:100A800018161906ECF4019790930D0180930C0150
:100A9000109213011092120110920F0110920E0188
:100AA000109211011092100110926B0010926A00C6
:100AB000109269001092680010926D0010926C0004
:100AC0004091060150910701609108017091090160
:100AD0008091020190910301A0910401B091050160
:100AE000481759076A077B07F9F08CE4D0D0E090EB
:100AF0000601F0900701009108011091090120E31F
:100B000040E064E08AE0CFD1809106019091070136
:100B1000A0910801B0910901809302019093030113
:100B2000A0930401B093050120910C0130910D01B7
:100B300080910A0190910B0128173907B9F080E5DF
:100B4000A6D0E0900C01F0900D010027F7FC009575
:100B5000102F20E340E064E08AE0A5D180910C01F1
:100B600090910D0190930B0180930A01D1D38823BA
:100B7000D9F08091F4009091F50001969093F500E2
:100B80008093F400499709F1CE010197F1F7989904
:100B900037CF1092010110920001999962CF109203
:100BA000FF001092FE008CCF9BD39093FD008093AA
:100BB000FC008F3F2FEF9207E1F28A30910558F445
:100BC00090930D0180930C01D4CFC3DD1092F500FA
:100BD0001092F400D9CF8332910509F44DC0849767
:100BE00041F67ED38C01909367008093660078D3A2
:100BF000F801EE0FFF1FEE52FF4F918380830091AB
:100C00006600109167006CD3F801EE0FFF1FE254ED
:100C1000FF4F91838083009166001091670060D33D
:100C2000F801EE0FFF1FE655FF4F9183808300917F
:100C300066001091670054D3F801EE0FFF1FEA56CB
:100C4000FF4F91838083009166001091670048D325
:100C5000F801EE0FFF1FEE57FF4F91838083009145
:100C60006600109167003CD3F801EE0FFF1FE259B8
:100C7000FF4F918380837DCF33D390939B018093EB
:100C80009A0177CF90931701809316010895CF931F
:100C9000C82F8A3039F0E0911601F09117018C2F9E
:100CA000CF910994E0911601F09117018DE009951B
:100CB000E0911601F09117018C2FCF9109941F93A9
:100CC000CF93DF930097C9F0FC0110811123A9F0A5
:100CD000EC01219609C0E0911601F0911701812FD6
:100CE00009951991112349F01A30A9F7E0911601DD
:100CF000F09117018DE00995EECFDF91CF911F9113
:100D00000895CF92DF92EF92FF920F931F93CF93AC
:100D1000DF931F92CDB7DEB77A010097A9F1FC01EE
:100D2000680F791F08C06F018FEFC81AD80A808139
:100D3000882329F0F6016F01E617F707A1F7E11400
:100D4000F10411F100E010E010C0BFEFCB1ADB0A94
:100D50009A3021F1E0911601F0911701892F099540
:100D60000F5F1F4F0E151F0579F0D6019C91911151
:100D7000ECCFE0911601F091170180E209950F5F29
:100D80001F4F0E151F0589F70F90DF91CF911F910F
:100D90000F91FF90EF90DF90CF900895E0911601B2
:100DA000F09117018DE0998309959981D3CF1F9315
:100DB000CF93DF930097D9F0EC012196FC011491B9
:100DC00011110CC014C0E0911601F0911701812F90
:100DD0000995FE0114912196112349F01A3099F7D3
:100DE000E0911601F09117018DE00995ECCFDF91AC
:100DF000CF911F910895E0911601F09117018DE0B8
:100E00000995E0911601F09117018AE00994CF93BA
:100E10008F70E82FF0E0EA5DFF4FC491CA3039F0DF
:100E2000E0911601F09117018C2FCF910994E09178
:100E30001601F09117018DE00995E0911601F091EE
:100E400017018C2FCF910994CF93C82F82958F7063
:100E5000DEDF8C2FCF91DBCF1F93CF93DF931F92D9
:100E6000CDB7DEB7182F892F82958F709983CFDF8A
:100E70009981892FCCDF812F82958F70C8DF812FD8
:100E80000F90DF91CF911F91C2CFCF92DF92EF925F
:100E9000FF926B017C01C701DFDFC601FF90EF907D
:100EA000DF90CF90D9CF3F924F925F926F927F9217
:100EB0008F929F92AF92BF92CF92DF92EF92FF926A
:100EC0000F931F93CF93DF93CDB7DEB7A9970FB6DC
:100ED000F894DEBF0FBECDBF362E722E442311F024
:100EE00017FD9FC047015801DD24D394411101C073
:100EF000D12CCC24CA94C30CCD1818A2282F30E0D2
:100F000040E050E029A33AA34BA35CA3C501B40180
:100F1000A7D2FB01EF70FF27EA5DFF4F64916F8F4F
:100F2000C501B40129A13AA14BA15CA199D2490103
:100F30005A012E013EE1430E511CEDA2FEA20FA369
:100F400018A70C2D1C2D6D2CC9A0DAA0EBA0FCA0BD
:100F500017C0C501B401A701960182D2FB01EF7051
:100F6000FF27EA5DFF4F6491F2016083C501B40180
:100F7000A701960175D249015A01F1E04F1A5108B3
:100F8000115040F081149104A104B10411F7F20151
:100F90007082F3CFC02EEDA0FEA00FA118A5FE0118
:100FA0007F96EC19F109662049F017FD42C0EF2841
:100FB000E02AE12A09F440C08BE282933320C9F091
:100FC0008F01F32C08C0E0911601F0911701892FD1
:100FD0000995FA9471F0F80191918F019A3099F77F
:100FE000E0911601F09117018DE099A7099599A557
:100FF000EACFA9960FB6F894DEBF0FBECDBFDF9142
:10100000CF911F910F91FF90EF90DF90CF90BF9005
:10101000AF909F908F907F906F905F904F903F9098
:1010200008958824992454018E189F08A00AB10AB3
:101030005BCF8DE28293C2CF80E28293BFCF6F926B
:101040007F928F929F92AF92BF92CF92DF92EF9258
:10105000FF920F931F93CF93DF931F92CDB7DEB70D
:101060007A88CB88DC884E0185E1880E911C772038
:10107000A9F086010F5F1F4FF6019491953249F157
:101080009923A9F09A3009F46FC0E0911601F0910C
:101090001701892F099568017110EBCFF601908136
:1010A000953291F186010F5F1F4F9111EBCF80E0D8
:1010B00090E00F90DF91CF911F910F91FF90EF90F3
:1010C000DF90CF90BF90AF909F908F907F906F9068
:1010D0000895F2E0CF0ED11CF80104910436D9F046
:1010E000083709F44AC0033629F4F401008192E07C
:1010F000890E911C0A3009F45DC0E0911601F0914F
:101100001701802F0995B3CFF6010181C601029620
:101110006C01043629F7F401E080F180E2E08E0EE4
:10112000911CF7FC4EC080E1E81687E2F80608F053
:1011300052C043E050E008EE13E0E016F10680F400
:101140009801ADECBCECAED18C01169507951695C7
:10115000079516950795415051094115510569F7B5
:101160002AE0A22EB12C14C0E0911601F0911701D3
:101170008DE099830995998188CFF401E080F18011
:10118000F2E08F0E911C80E1A82EB12C00E010E15E
:10119000C701B80151D1682E862F998338DEE62C1D
:1011A0009981F92EC801B50147D18B0161157105EF
:1011B00079F75DCFE0911601F09117018DE0099567
:1011C0009CCFF194E194F108E0911601F0911701A0
:1011D0008DE20995A8CF9AE0A92EB12C00E117E283
:1011E000D7CF40E450E06AE571E08BEA91E040D768
:1011F00040E450E06AE171E084EB91E039C7F1DF4F
:10120000109219011092180188ED8AB987E689B900
:1012100010BC8FEF8093AA011092B3011092BD0110
:101220001092BC017894089590931901809318014D
:1012300008950F931F938B019C01605C7D4B804F41
:101240009F4F660F771F881F991F660F771F881F94
:10125000991F660F771F881F991FA9019801220FF8
:10126000331F441F551F220F331F441F551F220FCA
:10127000331F441F551F220F331F441F551FF0D02B
:101280002150310929B930BD1F910F9108958BEA82
:1012900091E0089584EB91E008959091AA0199233B
:1012A000E1F38CB91092AA010895CF93DF93EC017A
:1012B0002091AD013091AE01232B31F08091AF012F
:1012C0009091B001892B21F480E0DF91CF910895B6
:1012D0008BEA91E0DAD688838FEFDF91CF91089582
:1012E000CF93DF931F92CDB7DEB7CE010196DDDF3E
:1012F000882331F0898190E00F90DF91CF9108959C
:101300008FEF9FEFF9CF1092B0011092AF010895C7
:1013100081E02091AF013091B001232B09F080E0F2
:1013200081950895682F84EB91E009C78FEF809332
:10133000B30184EB91E0A9D69091AA019923E1F33E
:101340008CB91092AA0108951F920F920FB60F92B6
:1013500011242F933F934F935F936F937F938F93BA
:101360009F93AF93BF93EF93FF938091B301882333
:1013700061F08091B8019091B901892BD1F410925C
:10138000B3018FEF8093AA0103C08FEF8093AA016E
:10139000FF91EF91BF91AF919F918F917F916F914D
:1013A0005F914F913F912F910F900FBE0F901F9023
:1013B000189584EB91E069D68CB9EACF1F920F9211
:1013C0000FB60F9211242F933F934F935F936F9318
:1013D0007F938F939F93AF93BF93EF93FF938CB1C2
:1013E0002091180130911901232BB1F0E0911801DF
:1013F000F09119010995FF91EF91BF91AF919F91E4
:101400008F917F916F915F914F913F912F910F90AD
:101410000FBE0F901F901895682F8BEA91E08FD622
:101420008111E9CF8091BC019091BD01019690930B
:10143000BD018093BC01DFCFAA1BBB1B51E107C0DC
:10144000AA1FBB1FA617B70710F0A61BB70B881F54
:10145000991F5A95A9F780959095BC01CD010895E3
:10146000A1E21A2EAA1BBB1BFD010DC0AA1FBB1FA8
:10147000EE1FFF1FA217B307E407F50720F0A21B1A
:10148000B30BE40BF50B661F771F881F991F1A9487
:1014900069F760957095809590959B01AC01BD01B1
:1014A000CF010895A29FB001B39FC001A39F01D0B7
:1014B000B29F700D811D1124911D089570D088F088
:1014C0009F5790F0B92F9927B751A0F0D1F0660F30
:1014D000771F881F991F1AF0BA95C9F712C0B1304B
:1014E00081F077D0B1E0089574C0672F782F8827F6
:1014F000B85F39F0B93FCCF3869577956795B3958A
:10150000D9F73EF490958095709561957F4F8F4FF8
:101510009F4F0895E89409C097FB3EF490958095FD
:10152000709561957F4F8F4F9F4F9923A9F0F92FA9
:1015300096E9BB279395F695879577956795B79527
:10154000F111F8CFFAF4BB0F11F460FF1BC06F5F0D
:101550007F4F8F4F9F4F16C0882311F096E911C01F
:10156000772321F09EE8872F762F05C0662371F040
:1015700096E8862F70E060E02AF09A95660F771F54
:10158000881FDAF7880F9695879597F9089557FD84
:101590009058440F551F59F05F3F71F04795880FE1
:1015A00097FB991F61F09F3F79F087950895121678
:1015B00013061406551FF2CF4695F1DF08C0161624
:1015C00017061806991FF1CF8695710561050894D5
:1015D0000895E894BB2766277727CB0197F90895EC
:1015E00011F40EF44DC03EC0DADFD0F39923D9F3E5
:1015F000CEF39F57550B87FF46D00024A0E640EA64
:10160000900180585695979528F4805C660F771F57
:10161000881F20F026173707480730F4621B730B2A
:10162000840B202931294A2BA6951794079420254D
:1016300031254A2758F7660F771F881F20F0261795
:101640003707480730F4620B730B840B200D311DF4
:10165000411DA09581F7B901842F9158880F969567
:10166000879508959F3F31F0915020F487957795A5
:101670006795B795880F911D9695879597F9089569
:101680009FEF80EC089591505040660F771F881FA0
:10169000D2F70895CF93DF938230910510F482E062
:1016A00090E0E091C001F091C10120E030E0A0E0C5
:1016B000B0E0309739F14081518148175907B8F0AF
:1016C0004817590771F482819381109729F0139676
:1016D0009C938E9312972CC09093C1018093C0016C
:1016E00027C02115310531F04217530718F0A90121
:1016F000DB0101C0EF019A01BD01DF010280F3812E
:10170000E02DD7CF21153105F9F0281B390B2430F6
:10171000310580F48A819B816115710521F0FB01FF
:101720009383828304C09093C1018093C001FE0122
:10173000329644C0FE01E20FF31F81939193225031
:101740003109398328833AC02091BE013091BF010D
:10175000232B41F420916200309163003093BF014C
:101760002093BE0120916000309161002115310568
:1017700041F42DB73EB74091640050916500241BA1
:10178000350BE091BE01F091BF01E217F307A0F421
:101790002E1B3F0B2817390778F0AC014E5F5F4FC7
:1017A0002417350748F04E0F5F1F5093BF01409339
:1017B000BE018193919302C0E0E0F0E0CF01DF91A0
:1017C000CF910895CF93DF93009709F487C0FC0170
:1017D000329713821282C091C001D091C10120972B
:1017E00081F420813181280F391F8091BE019091B1
:1017F000BF018217930779F5F093BF01E093BE0113
:101800006DC0DE0120E030E0AE17BF0750F4129645
:101810004D915C9113979D014115510509F1DA0134
:10182000F3CFB383A28340815181840F951F8A1720
:101830009B0771F48D919C911197840F951F0296CF
:101840009183808312968D919C91139793838283C9
:101850002115310529F4F093C101E093C0013EC088
:10186000D9011396FC93EE9312974D915D91A40FBD
:10187000B51FEA17FB0779F480819181840F951FCA
:101880000296D90111969C938E938281938113962F
:101890009C938E931297E0E0F0E08A819B81009701
:1018A00019F0FE01EC01F9CFCE01029628813981B1
:1018B000820F931F2091BE013091BF012817390775
:1018C00069F4309729F41092C1011092C00102C04E
:1018D00013821282D093BF01C093BE01DF91CF91DA
:1018E0000895AEE0B0E0E6E7FCE09FC20D891E89F6
:1018F0008F89988D26E02C831A83098397FF02C075
:1019000080E090E801979E838D83AE01455E5F4F36
:10191000698D7A8DCE01019611D04D815E8157FD82
:101920000AC02F813885421753070CF49A01F80139
:10193000E20FF31F10822E96E4E093C2ACE0B0E019
:10194000E3EAFCE064C27C016B018A01FC011782BE
:101950001682838181FFB0C1CE0101964C01F7014F
:101960009381F60193FD859193FF81916F01882307
:1019700009F49EC1853239F493FD859193FF8191DD
:101980006F01853221F4B70190E0B1D1E8CF512C3D
:10199000312C20E02032A0F48B3269F030F4803218
:1019A00059F0833269F420612CC08D3239F08033D4
:1019B00039F4216026C02260246023C0286021C041
:1019C00027FD27C030ED380F3A3078F426FF06C0E7
:1019D000FAE05F9E300D1124532E13C08AE0389E2A
:1019E000300D1124332E20620CC08E3221F426FDDE
:1019F0005FC1206406C08C3611F4206802C08836AE
:101A000041F4F60193FD859193FF81916F0181115E
:101A1000C1CF982F9F7D9554933028F40C5F1F4FB2
:101A2000FFE3F9830DC0833631F0833771F08335DE
:101A300009F057C021C0F801808189830E5F1F4FD4
:101A400044244394512C540114C03801F2E06F0E29
:101A5000711CF801A080B18026FF03C0652D70E0E5
:101A600002C06FEF7FEFC5012C8736D12C018301B7
:101A70002C852F77222E16C03801F2E06F0E711CD4
:101A8000F801A080B18026FF03C0652D70E002C080
:101A90006FEF7FEFC5012C8714D12C012C852068B6
:101AA000222E830123FC19C0832D90E0481659068D
:101AB000A0F4B70180E290E01AD13A94F5CFF50195
:101AC00027FC859127FE81915F01B70190E00FD13E
:101AD00031103A94F1E04F1A51084114510479F74A
:101AE000DEC0843611F0893631F5F80127FF07C0D2
:101AF00060817181828193810C5F1F4F08C060817A
:101B00007181882777FD8095982F0E5F1F4F2F7664
:101B1000B22E97FF09C090958095709561957F4F83
:101B20008F4F9F4F2068B22E2AE030E0A40111D1E0
:101B3000A82EA81843C0853729F42F7EB22E2AE09C
:101B400030E025C0F22FF97FBF2E8F36C1F018F498
:101B5000883579F0ADC0803719F0883721F0A8C0FA
:101B60002F2F2061B22EB4FE0DC08B2D8460B82EB5
:101B700009C024FF0AC09F2F9660B92E06C028E036
:101B800030E005C020E130E002C020E132E0F801A1
:101B9000B7FE07C060817181828193810C5F1F4F06
:101BA00006C06081718180E090E00E5F1F4FA4014C
:101BB000D0D0A82EA818FB2DFF77BF2EB6FE0BC0E5
:101BC0002B2D2E7FA51450F4B4FE0AC0B2FC08C021
:101BD0002B2D2E7E05C07A2C2B2D03C07A2C01C014
:101BE000752C24FF0DC0FE01EA0DF11D80818033AC
:101BF00011F4297E09C022FF06C07394739404C0B7
:101C0000822F867809F0739423FD12C020FF06C04E
:101C10005A2C731418F4530C5718732C731460F463
:101C2000B70180E290E02C8762D073942C85F6CFC8
:101C3000731410F4371801C0312C24FF11C0B70100
:101C400080E390E02C8753D02C8522FF16C021FF23
:101C500003C088E590E002C088E790E0B7010CC0BF
:101C6000822F867851F021FD02C080E201C08BE214
:101C700027FD8DE2B70190E03AD0A51430F4B7010A
:101C800080E390E034D05A94F8CFAA94F401EA0D9E
:101C9000F11D8081B70190E02AD0A110F6CF33204A
:101CA00009F45DCEB70180E290E021D03A94F7CFFD
:101CB000F7018681978102C08FEF9FEF2C96E2E1BA
:101CC000C2C0FC010590615070400110D8F78095AA
:101CD00090958E0F9F1F0895FC01615070400190F8
:101CE0000110D8F7809590958E0F9F1F08950F9340
:101CF0001F93CF93DF93182F092FEB018B8181FD69
:101D000003C08FEF9FEF20C082FF10C04E815F8124
:101D10002C813D81421753077CF4E881F9819F01B2
:101D20002F5F3F4F39832883108306C0E885F985EC
:101D3000812F0995892B29F72E813F812F5F3F4FF6
:101D40003F832E83812F902FDF91CF911F910F9191
:101D50000895FA01AA27283051F1203181F1E89441
:101D60006F936E7F6E5F7F4F8F4F9F4FAF4FB1E08E
:101D70003ED0B4E03CD0670F781F891F9A1FA11D89
:101D8000680F791F8A1F911DA11D6A0F711D811D8A
:101D9000911DA11D20D009F468943F912AE0269F4F
:101DA00011243019305D3193DEF6CF010895462FAE
:101DB0004770405D4193B3E00FD0C9F7F6CF462F8F
:101DC0004F70405D4A3318F0495D31FD40524193F8
:101DD00002D0A9F7EACFB4E0A695979587957795B5
:101DE0006795BA95C9F700976105710508959B013C
:101DF000AC010A2E06945795479537952795BA95C5
:101E0000C9F7620F731F841F951FA01D08952F929D
:101E10003F924F925F926F927F928F929F92AF927A
:101E2000BF92CF92DF92EF92FF920F931F93CF93C7
:101E3000DF93CDB7DEB7CA1BDB0B0FB6F894DEBF5E
:101E40000FBECDBF09942A88398848885F846E8484
:101E50007D848C849B84AA84B984C884DF80EE80CE
:101E6000FD800C811B81AA81B981CE0FD11D0FB6D7
:101E7000F894DEBF0FBECDBFED010895F894FFCFFB
:101E80000000C2012000FFFF01000100010032003C
:101E900032003200320032003200320021001000E5
:101EA0000000320032003200320021001000000039
:101EB00000000000000032002100100000000000BF
:101EC0000000000000000000000000000000000012
:101ED000000000000000000011002200320000009D
:101EE0000000000000001100220032003200320029
:101EF00032000000110022003200320032003200B5
:101F0000320032003200256C75002564003A002F43
:041F1000005A000073
:00000001FF
